{
    "contractName": "HelloWorld",
    "abi": [
        {
            "constant": true,
            "inputs": [],
            "name": "getHelloMessage",
            "outputs": [
                {
                    "internalType": "string",
                    "name": "",
                    "type": "string"
                }
            ],
            "payable": false,
            "stateMutability": "view",
            "type": "function"
        }
    ],
    "bytecode": "60c0604052600c60808190526b48656c6c6f20576f726c642160a01b60a090815261002d9160009190610040565b5034801561003a57600080fd5b506100db565b828054600181600116156101000203166002900490600052602060002090601f016020900481019282601f1061008157805160ff19168380011785556100ae565b828001600101855582156100ae579182015b828111156100ae578251825591602001919060010190610093565b506100ba9291506100be565b5090565b6100d891905b808211156100ba57600081556001016100c4565b90565b610178806100ea6000396000f3fe608060405234801561001057600080fd5b506004361061002b5760003560e01c80633493b37c14610030575b600080fd5b6100386100ad565b6040805160208082528351818301528351919283929083019185019080838360005b8381101561007257818101518382015260200161005a565b50505050905090810190601f16801561009f5780820380516001836020036101000a031916815260200191505b509250505060405180910390f35b60008054604080516020601f60026000196101006001881615020190951694909404938401819004810282018101909252828152606093909290918301828280156101395780601f1061010e57610100808354040283529160200191610139565b820191906000526020600020905b81548152906001019060200180831161011c57829003601f168201915b505050505090509056fea265627a7a72315820d0bdcb907bc2a3efc1d3d5e31fddc90fb0c75e10b582130c6505d214d4beb51764736f6c63430005100032",
    "sourcePath": "c:/working/ether/llEth/contracts/HelloWorld.sol",
    "compiler": {
        "name": "solc",
        "version": "0.5.16+commit.9c3226ce"
    },
    "functionHashes": {
        "getHelloMessage()": "3493b37c"
    },
    "gasEstimates": {
        "creation": {
            "codeDepositCost": "75200",
            "executionCost": "infinite",
            "totalCost": "infinite"
        },
        "external": {
            "getHelloMessage()": "infinite"
        }
    }
}