{
  "contractName": "DataTypes",
  "abi": [
    {
      "constant": true,
      "inputs": [],
      "name": "getStateVariables",
      "outputs": [
        {
          "internalType": "uint256",
          "name": "",
          "type": "uint256"
        },
        {
          "internalType": "int256",
          "name": "",
          "type": "int256"
        },
        {
          "internalType": "uint256",
          "name": "",
          "type": "uint256"
        },
        {
          "internalType": "bool",
          "name": "",
          "type": "bool"
        },
        {
          "internalType": "address",
          "name": "",
          "type": "address"
        },
        {
          "internalType": "bytes32",
          "name": "",
          "type": "bytes32"
        },
        {
          "internalType": "string",
          "name": "",
          "type": "string"
        }
      ],
      "payable": false,
      "stateMutability": "view",
      "type": "function"
    }
  ],
  "bytecode": "0x608060405260096000557fffffffffffffffffffffffffffffffffffffffffffffffffffffffffffffffbc6001556011600260006101000a81548160ff021916908360ff1602179055506001600260016101000a81548160ff021916908315150217905550336002806101000a81548173ffffffffffffffffffffffffffffffffffffffff021916908373ffffffffffffffffffffffffffffffffffffffff1602179055507f68656c6c6f0000000000000000000000000000000000000000000000000000006003556040518060400160405280600581526020017f68656c6c6f00000000000000000000000000000000000000000000000000000081525060049080519060200190610113929190610126565b5034801561012057600080fd5b506101cb565b828054600181600116156101000203166002900490600052602060002090601f016020900481019282601f1061016757805160ff1916838001178555610195565b82800160010185558215610195579182015b82811115610194578251825591602001919060010190610179565b5b5090506101a291906101a6565b5090565b6101c891905b808211156101c45760008160009055506001016101ac565b5090565b90565b610253806101da6000396000f3fe608060405234801561001057600080fd5b506004361061002b5760003560e01c8063dde89cf514610030575b600080fd5b61003861010d565b60405180888152602001878152602001868152602001851515151581526020018473ffffffffffffffffffffffffffffffffffffffff1673ffffffffffffffffffffffffffffffffffffffff16815260200183815260200180602001828103825283818151815260200191508051906020019080838360005b838110156100cc5780820151818401526020810190506100b1565b50505050905090810190601f1680156100f95780820380516001836020036101000a031916815260200191505b509850505050505050505060405180910390f35b6000806000806000806060600054600154600260009054906101000a900460ff16600260019054906101000a900460ff166002809054906101000a900473ffffffffffffffffffffffffffffffffffffffff1660035460048460ff169450808054600181600116156101000203166002900480601f0160208091040260200160405190810160405280929190818152602001828054600181600116156101000203166002900480156102005780601f106101d557610100808354040283529160200191610200565b820191906000526020600020905b8154815290600101906020018083116101e357829003601f168201915b5050505050905096509650965096509650965096509091929394959656fea265627a7a72315820339e534926d1a19e78a97246636ad3c9bd810b418222663b28f96cdcd19d0eaa64736f6c63430005100032",
  "source": "pragma solidity ^0.5.0;\r\n\r\n//A Simple Smart Contract to demonstrate simple data types available in Solidity\r\n\r\ncontract DataTypes {\r\n    uint256 x = 9; //256 bytes\r\n    int256 i = -68; //can store negatives\r\n    uint8 j = 17; //8 bytes\r\n    bool isEthereumCool = true;\r\n    address owner = msg.sender;\r\n    bytes32 bMsg = \"hello\";\r\n    string sMsg = \"hello\";\r\n\r\n    function getStateVariables()\r\n        public\r\n        view\r\n        returns (\r\n            uint256,\r\n            int256,\r\n            uint256,\r\n            bool,\r\n            address,\r\n            bytes32,\r\n            string memory\r\n        )\r\n    {\r\n        return (x, i, j, isEthereumCool, owner, bMsg, sMsg);\r\n    }\r\n\r\n    function setbMsg(bytes32 newValue) private returns (bytes32) {\r\n        bMsg = newValue;\r\n    }\r\n}\r\n",
  "sourcePath": "C:\\working\\ether\\llEth\\secondProj\\contracts\\DataTypes.sol",
  "compiler": {
    "name": "solc",
    "version": "0.5.16+commit.9c3226ce.Emscripten.clang"
  },
  "schemaVersion": "3.4.3",
  "updatedAt": "2021-09-20T06:09:05.579Z",
  "networkType": "ethereum",
  "devdoc": {
    "methods": {}
  },
  "userdoc": {
    "methods": {}
  }
}