{
    "contractName": "DataTypes",
    "abi": [
        {
            "constant": true,
            "inputs": [],
            "name": "getStateVariables",
            "outputs": [
                {
                    "internalType": "uint256",
                    "name": "",
                    "type": "uint256"
                },
                {
                    "internalType": "int256",
                    "name": "",
                    "type": "int256"
                },
                {
                    "internalType": "uint256",
                    "name": "",
                    "type": "uint256"
                },
                {
                    "internalType": "bool",
                    "name": "",
                    "type": "bool"
                },
                {
                    "internalType": "address",
                    "name": "",
                    "type": "address"
                },
                {
                    "internalType": "bytes32",
                    "name": "",
                    "type": "bytes32"
                },
                {
                    "internalType": "string",
                    "name": "",
                    "type": "string"
                }
            ],
            "payable": false,
            "stateMutability": "view",
            "type": "function"
        }
    ],
    "bytecode": "600960005560431960015560028054610100601160ff199092169190911761ff0019161762010000600160b01b0319163362010000021790556468656c6c6f60d81b600381905560c06040526005608081905260a091825261006391600491610076565b5034801561007057600080fd5b50610111565b828054600181600116156101000203166002900490600052602060002090601f016020900481019282601f106100b757805160ff19168380011785556100e4565b828001600101855582156100e4579182015b828111156100e45782518255916020019190600101906100c9565b506100f09291506100f4565b5090565b61010e91905b808211156100f057600081556001016100fa565b90565b610207806101206000396000f3fe608060405234801561001057600080fd5b506004361061002b5760003560e01c8063dde89cf514610030575b600080fd5b6100386100f0565b6040518088815260200187815260200186815260200185151515158152602001846001600160a01b03166001600160a01b0316815260200183815260200180602001828103825283818151815260200191508051906020019080838360005b838110156100af578181015183820152602001610097565b50505050905090810190601f1680156100dc5780820380516001836020036101000a031916815260200191505b509850505050505050505060405180910390f35b60008054600180546002805460035460048054604080516020610100998416158a026000190190931696909604601f8101839004830287018301909152808652899889988998899889986060989497929660ff808316979583041695620100009092046001600160a01b0316949193929183918301828280156101b45780601f10610189576101008083540402835291602001916101b4565b820191906000526020600020905b81548152906001019060200180831161019757829003601f168201915b5050505050905096509650965096509650965096509091929394959656fea265627a7a7231582077f16d04ec1c9938761d45d8a789f0186c7e4db90f76e86da1b810042645e1c364736f6c63430005100032",
    "sourcePath": "c:/working/ether/llEth/secondProj/contracts/DataTypes.sol",
    "compiler": {
        "name": "solc",
        "version": "0.5.16+commit.9c3226ce"
    },
    "functionHashes": {
        "getStateVariables()": "dde89cf5"
    },
    "gasEstimates": {
        "creation": {
            "codeDepositCost": "103800",
            "executionCost": "infinite",
            "totalCost": "infinite"
        },
        "external": {
            "getStateVariables()": "infinite"
        },
        "internal": {
            "setbMsg(bytes32)": "infinite"
        }
    }
}